{
  "contractName": "AddressInfo",
  "abi": [
    {
      "anonymous": false,
      "inputs": [
        {
          "indexed": true,
          "internalType": "address",
          "name": "Id",
          "type": "address"
        },
        {
          "indexed": false,
          "internalType": "string",
          "name": "Info",
          "type": "string"
        }
      ],
      "name": "UpdatedAddressInfo",
      "type": "event"
    },
    {
      "stateMutability": "nonpayable",
      "type": "fallback"
    },
    {
      "inputs": [
        {
          "internalType": "address",
          "name": "account",
          "type": "address"
        },
        {
          "internalType": "string",
          "name": "info",
          "type": "string"
        }
      ],
      "name": "set",
      "outputs": [],
      "stateMutability": "nonpayable",
      "type": "function"
    },
    {
      "inputs": [
        {
          "internalType": "address",
          "name": "account",
          "type": "address"
        }
      ],
      "name": "get",
      "outputs": [
        {
          "internalType": "string",
          "name": "info",
          "type": "string"
        }
      ],
      "stateMutability": "view",
      "type": "function",
      "constant": true
    },
    {
      "inputs": [
        {
          "internalType": "address",
          "name": "account",
          "type": "address"
        }
      ],
      "name": "remove",
      "outputs": [],
      "stateMutability": "nonpayable",
      "type": "function"
    }
  ],
  "bytecode": "0x608060405234801561001057600080fd5b50610716806100206000396000f3fe608060405234801561001057600080fd5b50600436106100455760003560e01c806329092d0e146100975780635a82d100146100db578063c2bc2efc1461017457610046565b5b6040517f08c379a000000000000000000000000000000000000000000000000000000000815260040180806020018281038252602f815260200180610685602f913960400191505060405180910390fd5b6100d9600480360360208110156100ad57600080fd5b81019080803573ffffffffffffffffffffffffffffffffffffffff169060200190929190505050610231565b005b610172600480360360408110156100f157600080fd5b81019080803573ffffffffffffffffffffffffffffffffffffffff1690602001909291908035906020019064010000000081111561012e57600080fd5b82018360208201111561014057600080fd5b8035906020019184600183028401116401000000008311171561016257600080fd5b90919293919293905050506102d8565b005b6101b66004803603602081101561018a57600080fd5b81019080803573ffffffffffffffffffffffffffffffffffffffff169060200190929190505050610487565b6040518080602001828103825283818151815260200191508051906020019080838360005b838110156101f65780820151818401526020810190506101db565b50505050905090810190601f1680156102235780820380516001836020036101000a031916815260200191505b509250505060405180910390f35b6000808273ffffffffffffffffffffffffffffffffffffffff1673ffffffffffffffffffffffffffffffffffffffff168152602001908152602001600020600061027b9190610567565b8073ffffffffffffffffffffffffffffffffffffffff167f69087606d698b9a503176191af0e6930dc893f51e06d947eb87d3b55cf7d787b604051808060200182810382526000815260200160200191505060405180910390a250565b8273ffffffffffffffffffffffffffffffffffffffff163373ffffffffffffffffffffffffffffffffffffffff161461035c576040517f08c379a000000000000000000000000000000000000000000000000000000000815260040180806020018281038252602d8152602001806106b4602d913960400191505060405180910390fd5b6104008282905011156103ba576040517f08c379a00000000000000000000000000000000000000000000000000000000081526004018080602001828103825260308152602001806106556030913960400191505060405180910390fd5b81816000808673ffffffffffffffffffffffffffffffffffffffff1673ffffffffffffffffffffffffffffffffffffffff16815260200190815260200160002091906104079291906105af565b508273ffffffffffffffffffffffffffffffffffffffff167f69087606d698b9a503176191af0e6930dc893f51e06d947eb87d3b55cf7d787b838360405180806020018281038252848482818152602001925080828437600081840152601f19601f820116905080830192505050935050505060405180910390a2505050565b60606000808373ffffffffffffffffffffffffffffffffffffffff1673ffffffffffffffffffffffffffffffffffffffff1681526020019081526020016000208054600181600116156101000203166002900480601f01602080910402602001604051908101604052809291908181526020018280546001816001161561010002031660029004801561055b5780601f106105305761010080835404028352916020019161055b565b820191906000526020600020905b81548152906001019060200180831161053e57829003601f168201915b50505050509050919050565b50805460018160011615610100020316600290046000825580601f1061058d57506105ac565b601f0160209004906000526020600020908101906105ab919061062f565b5b50565b828054600181600116156101000203166002900490600052602060002090601f016020900481019282601f106105f057803560ff191683800117855561061e565b8280016001018555821561061e579182015b8281111561061d578235825591602001919060010190610602565b5b50905061062b919061062f565b5090565b61065191905b8082111561064d576000816000905550600101610635565b5090565b9056fe52656163686564206d6178696d756d2073697a652028314b4229206f662073746f72656420696e666f726d6174696f6e596f7520617265206e6f7420616c6c6f77656420746f2063616c6c20756e646566696e65642066756e6374696f6e734f6e6c7920746865206f776e6572206f662074686520616464726573732063616e2073746f726520696e666f2ea2646970667358221220e53f086f1f00355e91d9f6a364fdd9ca09515cd57053b03d2ade8070c926bd5564736f6c63430006000033",
  "source": "pragma solidity >=0.6.0 <0.7.0;\n\n\ncontract AddressInfo {\n    event UpdatedAddressInfo(address indexed Id, string Info);\n\n    mapping(address => string) private _abis;\n\n    fallback() external {\n        revert(\"You are not allowed to call undefined functions\");\n    }\n\n    /**\n     * @notice Set info for address\n     * @param account The account address\n     * @param info A JSON string with info about the address\n     */\n    function set(address account, string calldata info) external {\n        require(\n            msg.sender == account,\n            \"Only the owner of the address can store info.\"\n        );\n        require(\n            bytes(info).length <= 1024,\n            \"Reached maximum size (1KB) of stored information\"\n        );\n\n        _abis[account] = info;\n\n        emit UpdatedAddressInfo(account, info);\n    }\n\n    /**\n     * @notice Get info for address\n     * @param account The account address\n     * @return info A JSON string with info about the address\n     */\n    function get(address account) external view returns (string memory info) {\n        return _abis[account];\n    }\n\n    /**\n     * @notice Remove stored info for address\n     * @param account The account address\n     */\n    function remove(address account) external {\n        delete _abis[account];\n\n        emit UpdatedAddressInfo(account, \"\");\n    }\n}\n",
  "sourcePath": "/Users/ziogaschr/Sites/ebakus/ebakus-contracts/address-info/contracts/AddressInfo.sol",
  "compiler": {
    "name": "solc",
    "version": "0.6.0+commit.26b70077.Emscripten.clang"
  },
  "schemaVersion": "3.0.23",
  "updatedAt": "2020-05-18T10:27:17.998Z",
  "networkType": "ethereum",
  "devdoc": {
    "methods": {
      "get(address)": {
        "params": {
          "account": "The account address"
        },
        "returns": {
          "info": "A JSON string with info about the address"
        }
      },
      "remove(address)": {
        "params": {
          "account": "The account address"
        }
      },
      "set(address,string)": {
        "params": {
          "account": "The account address",
          "info": "A JSON string with info about the address"
        }
      }
    }
  },
  "userdoc": {
    "methods": {
      "get(address)": {
        "notice": "Get info for address"
      },
      "remove(address)": {
        "notice": "Remove stored info for address"
      },
      "set(address,string)": {
        "notice": "Set info for address"
      }
    }
  }
}