{
  "contractName": "AddressInfo",
  "abi": [
    {
      "anonymous": false,
      "inputs": [
        {
          "indexed": true,
          "internalType": "address",
          "name": "Id",
          "type": "address"
        },
        {
          "indexed": false,
          "internalType": "string",
          "name": "Info",
          "type": "string"
        }
      ],
      "name": "UpdatedAddressInfo",
      "type": "event"
    },
    {
      "inputs": [
        {
          "internalType": "address",
          "name": "account",
          "type": "address"
        },
        {
          "internalType": "string",
          "name": "info",
          "type": "string"
        }
      ],
      "name": "set",
      "outputs": [],
      "stateMutability": "nonpayable",
      "type": "function"
    },
    {
      "inputs": [
        {
          "internalType": "address",
          "name": "account",
          "type": "address"
        }
      ],
      "name": "get",
      "outputs": [
        {
          "internalType": "string",
          "name": "info",
          "type": "string"
        }
      ],
      "stateMutability": "view",
      "type": "function",
      "constant": true
    },
    {
      "inputs": [
        {
          "internalType": "address",
          "name": "account",
          "type": "address"
        }
      ],
      "name": "remove",
      "outputs": [],
      "stateMutability": "nonpayable",
      "type": "function"
    }
  ],
  "bytecode": "0x608060405234801561001057600080fd5b5061069a806100206000396000f3fe608060405234801561001057600080fd5b50600436106100415760003560e01c806329092d0e146100465780635a82d1001461008a578063c2bc2efc14610123575b600080fd5b6100886004803603602081101561005c57600080fd5b81019080803573ffffffffffffffffffffffffffffffffffffffff1690602001909291905050506101e0565b005b610121600480360360408110156100a057600080fd5b81019080803573ffffffffffffffffffffffffffffffffffffffff169060200190929190803590602001906401000000008111156100dd57600080fd5b8201836020820111156100ef57600080fd5b8035906020019184600183028401116401000000008311171561011157600080fd5b9091929391929390505050610287565b005b6101656004803603602081101561013957600080fd5b81019080803573ffffffffffffffffffffffffffffffffffffffff169060200190929190505050610437565b6040518080602001828103825283818151815260200191508051906020019080838360005b838110156101a557808201518184015260208101905061018a565b50505050905090810190601f1680156101d25780820380516001836020036101000a031916815260200191505b509250505060405180910390f35b6000808273ffffffffffffffffffffffffffffffffffffffff1673ffffffffffffffffffffffffffffffffffffffff168152602001908152602001600020600061022a9190610517565b8073ffffffffffffffffffffffffffffffffffffffff167f69087606d698b9a503176191af0e6930dc893f51e06d947eb87d3b55cf7d787b604051808060200182810382526000815260200160200191505060405180910390a250565b8273ffffffffffffffffffffffffffffffffffffffff163373ffffffffffffffffffffffffffffffffffffffff161461030b576040517f08c379a000000000000000000000000000000000000000000000000000000000815260040180806020018281038252602d815260200180610638602d913960400191505060405180910390fd5b6201999982829050111561036a576040517f08c379a00000000000000000000000000000000000000000000000000000000081526004018080602001828103825260338152602001806106056033913960400191505060405180910390fd5b81816000808673ffffffffffffffffffffffffffffffffffffffff1673ffffffffffffffffffffffffffffffffffffffff16815260200190815260200160002091906103b792919061055f565b508273ffffffffffffffffffffffffffffffffffffffff167f69087606d698b9a503176191af0e6930dc893f51e06d947eb87d3b55cf7d787b838360405180806020018281038252848482818152602001925080828437600081840152601f19601f820116905080830192505050935050505060405180910390a2505050565b60606000808373ffffffffffffffffffffffffffffffffffffffff1673ffffffffffffffffffffffffffffffffffffffff1681526020019081526020016000208054600181600116156101000203166002900480601f01602080910402602001604051908101604052809291908181526020018280546001816001161561010002031660029004801561050b5780601f106104e05761010080835404028352916020019161050b565b820191906000526020600020905b8154815290600101906020018083116104ee57829003601f168201915b50505050509050919050565b50805460018160011615610100020316600290046000825580601f1061053d575061055c565b601f01602090049060005260206000209081019061055b91906105df565b5b50565b828054600181600116156101000203166002900490600052602060002090601f016020900481019282601f106105a057803560ff19168380011785556105ce565b828001600101855582156105ce579182015b828111156105cd5782358255916020019190600101906105b2565b5b5090506105db91906105df565b5090565b61060191905b808211156105fd5760008160009055506001016105e5565b5090565b9056fe52656163686564206d6178696d756d2073697a652028302e314d422920666f722073746f72656420696e666f726d6174696f6e4f6e6c7920746865206f776e6572206f662074686520616464726573732063616e2073746f726520696e666f2ea2646970667358221220b86e0d24986a860df6c27e0d02807958c333ef81e105351681a4ba00b1b7d07764736f6c63430006000033",
  "source": "pragma solidity >=0.6.0 <0.7.0;\n\n\ncontract AddressInfo {\n    event UpdatedAddressInfo(address indexed Id, string Info);\n\n    mapping(address => string) private _abis;\n\n\n    /**\n     * @notice Set info for address\n     * @param account The account address\n     * @param info A JSON string with info about the address\n     */\n    function set(address account, string calldata info) external {\n        require(\n            msg.sender == account,\n            \"Only the owner of the address can store info.\"\n        );\n        require(bytes(info).length <= 104857, \"Reached maximum size (0.1MB) for stored information\");\n\n        _abis[account] = info;\n\n        emit UpdatedAddressInfo(account, info);\n    }\n\n    /**\n     * @notice Get info for address\n     * @param account The account address\n     * @return info A JSON string with info about the address\n     */\n    function get(address account) external view returns (string memory info) {\n        return _abis[account];\n    }\n\n    /**\n     * @notice Remove stored info for address\n     * @param account The account address\n     */\n    function remove(address account) external {\n        delete _abis[account];\n\n        emit UpdatedAddressInfo(account, \"\");\n    }\n}\n",
  "sourcePath": "/Users/ziogaschr/Sites/ebakus/ebakus-contracts/address-info/contracts/AddressInfo.sol",
  "compiler": {
    "name": "solc",
    "version": "0.6.0+commit.26b70077.Emscripten.clang"
  },
  "schemaVersion": "3.0.23",
  "updatedAt": "2020-05-18T09:45:30.632Z",
  "networkType": "ethereum",
  "devdoc": {
    "methods": {
      "get(address)": {
        "params": {
          "account": "The account address"
        },
        "returns": {
          "info": "A JSON string with info about the address"
        }
      },
      "remove(address)": {
        "params": {
          "account": "The account address"
        }
      },
      "set(address,string)": {
        "params": {
          "account": "The account address",
          "info": "A JSON string with info about the address"
        }
      }
    }
  },
  "userdoc": {
    "methods": {
      "get(address)": {
        "notice": "Get info for address"
      },
      "remove(address)": {
        "notice": "Remove stored info for address"
      },
      "set(address,string)": {
        "notice": "Set info for address"
      }
    }
  }
}